:020000040800F2
:1000000000000220CD4E00087D4E0008814E000801
:10001000854E0008894E00088D4E00080000000043
:10002000000000000000000000000000914E0008E9
:10003000954E000800000000994E00089D4E0008F3
:100040001D4F00081D4F00081D4F00081D4F0008E0
:100050001D4F00081D4F00081D4F00081D4F0008D0
:100060001D4F00081D4F00081D4F00081D4F0008C0
:100070001D4F00081D4F00081D4F00081D4F0008B0
:100080001D4F00081D4F00081D4F00081D4F0008A0
:100090001D4F00081D4F00081D4F00081D4F000890
:1000A0001D4F00081D4F00081D4F00081D4F000880
:1000B0001D4F0008A14E00081D4F00081D4F0008ED
:1000C0001D4F00081D4F00081D4F00081D4F000860
:1000D0001D4F0008AD4E00081D4F00081D4F0008C1
:1000E0001D4F00081D4F00081D4F00081D4F000840
:1000F0001D4F00081D4F00081D4F00081D4F000830
:100100001D4F00081D4F00081D4F00081D4F00081F
:100110001D4F00081D4F00081D4F00081D4F00080F
:100120001D4F00081D4F00081D4F00081D4F0008FF
:100130001D4F000800000000000000001D4F0008D7
:100140001D4F00081D4F00081D4F00081D4F0008DF
:100150001D4F00081D4F00081D4F00081D4F0008CF
:100160001D4F00081D4F00081D4F00081D4F0008BF
:100170001D4F00081D4F0008000000000000000097
:080180001D4F00081D4F00088F
:1001900001F0FF01102A2BDB10F0070F08D010F838
:1001A000013B013A8B422DD010F0070F42B3F6D13C
:1001B000F0B441EA012141EA014122F007047FF055
:1001C00000070023F0E80256083C85EA010586EAAC
:1001D000010685FA47F5A3FA87F586FA47F6A5FAE8
:1001E00087F68EB9EED1F0BC01F0FF0102F00702F4
:1001F00032B110F8013B013A83EA010313B1F8D19F
:100200000020704701387047002D06BF354603387F
:10021000073815F0010F07D1013015F4807F02BFB8
:10022000013015F4C03F0130F0BC0138704700BF09
:1002300081F0004102E000BF83F0004330B54FEA97
:1002400041044FEA430594EA050F08BF90EA020F04
:100250001FBF54EA000C55EA020C7FEA645C7FEA97
:10026000655C00F0E2804FEA5454D4EB5555B8BFBA
:100270006D420CDD2C4480EA020281EA030382EA2B
:10028000000083EA010180EA020281EA0303362DBD
:1002900088BF30BD11F0004F4FEA01314FF4801C90
:1002A0004CEA113102D0404261EB410113F0004FA2
:1002B0004FEA03334CEA133302D0524263EB430359
:1002C00094EA050F00F0A780A4F10104D5F1200EF7
:1002D0000DDB02FA0EFC22FA05F2801841F1000152
:1002E00003FA0EF2801843FA05F359410EE0A5F126
:1002F00020050EF1200E012A03FA0EFC28BF4CF057
:10030000020C43FA05F3C01851EBE37101F000450C
:1003100007D54FF0000EDCF1000C7EEB00006EEB19
:100320000101B1F5801F1BD3B1F5001F0CD34908A3
:100330005FEA30004FEA3C0C04F101044FEA4452FA
:1003400012F5800F80F09A80BCF1004F08BF5FEA81
:10035000500C50F1000041EB045141EA050130BD61
:100360005FEA4C0C404141EB0101013C28BFB1F573
:10037000801FE9D291F0000F04BF01460020B1FABE
:1003800081F308BF2033A3F10B03B3F120020CDA91
:100390000C3208DD02F1140CC2F10C0201FA0CF06F
:1003A00021FA02F10CE002F11402D8BFC2F1200CD4
:1003B00001FA02F120FA0CFCDCBF41EA0C0190408A
:1003C000E41AA2BF01EB0451294330BD6FEA0404D3
:1003D0001F3C1CDA0C340EDC04F11404C4F12002BE
:1003E00020FA04F001FA02F340EA030021FA04F3D0
:1003F00045EA030130BDC4F10C04C4F1200220FA27
:1004000002F001FA04F340EA0300294630BD21FA64
:1004100004F0294630BD94F0000F83F4801306BF2A
:1004200081F480110134013D4EE77FEA645C18BF1E
:100430007FEA655C29D094EA050F08BF90EA020FB5
:1004400005D054EA000C04BF1946104630BD91EAAD
:10045000030F1EBF0021002030BD5FEA545C05D1B0
:100460004000494128BF41F0004130BD14F58004EF
:100470003CBF01F5801130BD01F0004545F0FE4163
:1004800041F470014FF0000030BD7FEA645C1ABF98
:10049000194610467FEA655C1CBF0B46024650EACF
:1004A000013406BF52EA033591EA030F41F40021FB
:1004B00030BD00BF90F0000F04BF0021704730B581
:1004C0004FF4806404F132044FF000054FF0000156
:1004D00050E700BF90F0000F04BF0021704730B517
:1004E0004FF4806404F1320410F0004548BF4042EC
:1004F0004FF000013EE700BF42004FEAE2014FEA41
:1005000031014FEA02701FBF12F07F4393F07F4F1B
:1005100081F06051704732F07F4208BF704793F01E
:100520007F4F04BF41F40021704730B54FF4607431
:1005300001F0004521F000411CE700BF50EA010234
:1005400008BF704730B54FF000050AE050EA0102DD
:1005500008BF704730B511F0004502D5404261EB4D
:1005600041014FF4806404F132045FEA915C3FF48E
:10057000D8AE4FF003025FEADC0C18BF03325FEA2B
:10058000DC0C18BF033202EBDC02C2F1200300FADC
:1005900003FC20FA02F001FA03FE40EA0E0021FA01
:1005A00002F11444BDE600BF70B54FF0FF0C4CF4EF
:1005B000E06C1CEA11541DBF1CEA135594EA0C0FA1
:1005C00095EA0C0F00F0DEF82C4481EA030621EADC
:1005D0004C5123EA4C5350EA013518BF52EA033517
:1005E00041F4801143F4801338D0A0FB02CE4FF0C9
:1005F0000005E1FB02E506F00042E0FB03E54FF0F9
:100600000006E1FB03569CF0000F18BF4EF0010EF0
:10061000A4F1FF04B6F5007F64F5407404D25FEAEC
:100620004E0E6D4146EB060642EAC62141EA55519F
:100630004FEAC52040EA5E504FEACE2EB4F1FD0CE1
:1006400088BFBCF5E06F1ED8BEF1004F08BF5FEA5F
:10065000500E50F1000041EB045170BD06F0004611
:1006600046EA010140EA020081EA0301B4EB5C04BE
:10067000C2BFD4EB0C0541EA045170BD41F48011B6
:100680004FF0000E013C00F3AB8014F1360FDEBFDB
:10069000002001F0004170BDC4F10004203C35DAB7
:1006A0000C341BDC04F11404C4F1200500FA05F33A
:1006B00020FA04F001FA05F240EA020001F00042DB
:1006C00021F0004110EBD37021FA04F642EB060151
:1006D0005EEA430E08BF20EAD37070BDC4F10C047B
:1006E000C4F1200500FA04F320FA05F001FA04F23F
:1006F00040EA020001F0004110EBD37041F100012B
:100700005EEA430E08BF20EAD37070BDC4F1200535
:1007100000FA05F24EEA020E20FA04F301FA05F29D
:1007200043EA020321FA04F001F0004121FA04F245
:1007300020EA020000EBD3705EEA430E08BF20EA15
:10074000D37070BD94F0000F0FD101F0004640004F
:1007500041EB010111F4801F08BF013CF7D041EAD1
:10076000060195F0000F18BF704703F000465200D5
:1007700043EB030313F4801F08BF013DF7D043EAA6
:100780000603704794EA0C0F0CEA135518BF95EA5C
:100790000C0F0CD050EA410618BF52EA4306D1D1E3
:1007A00081EA030101F000414FF0000070BD50EA02
:1007B000410606BF1046194652EA430619D094EA8C
:1007C0000C0F02D150EA013613D195EA0C0F05D176
:1007D00052EA03361CBF104619460AD181EA0301CA
:1007E00001F0004141F0FE4141F470014FF0000082
:1007F00070BD41F0FE4141F4780170BD70B54FF01D
:10080000FF0C4CF4E06C1CEA11541DBF1CEA13559C
:1008100094EA0C0F95EA0C0F00F0A7F8A4EB05047E
:1008200081EA030E52EA03354FEA013100F0888075
:100830004FEA03334FF0805545EA131343EA12633E
:100840004FEA022245EA111545EA10654FEA0026F3
:100850000EF000419D4208BF964244F1FD0404F5AC
:10086000407402D25B084FEA3202B61A65EB030508
:100870005B084FEA32024FF480104FF4002CB6EBC5
:10088000020E75EB030E22BFB61A754640EA0C0045
:100890005B084FEA3202B6EB020E75EB030E22BF85
:1008A000B61A754640EA5C005B084FEA3202B6EBC6
:1008B000020E75EB030E22BFB61A754640EA9C0085
:1008C0005B084FEA3202B6EB020E75EB030E22BF55
:1008D000B61A754640EADC0055EA060E18D04FEA13
:1008E000051545EA16754FEA06164FEAC30343EAB3
:1008F00052734FEAC2025FEA1C1CC0D111F4801F80
:100900000BD141EA00014FF000004FF0004CB6E778
:1009100011F4801F04BF01430020B4F1FD0C88BF17
:10092000BCF5E06F3FF6AFAEB5EB030C04BFB6EB22
:10093000020C5FEA500C50F1000041EB045170BD15
:100940000EF0004E4EEA113114EB5C04C2BFD4EB42
:100950000C0541EA045170BD41F480114FF0000EC6
:10096000013C90E645EA060E8DE60CEA135594EA42
:100970000C0F08BF95EA0C0F3FF43BAF94EA0C0F45
:100980000AD150EA01347FF434AF95EA0C0F7FF4BA
:1009900025AF104619462CE795EA0C0F06D152EA0E
:1009A00003353FF4FDAE1046194622E750EA4106F2
:1009B00018BF52EA43067FF4C5AE50EA41047FF403
:1009C0000DAF52EA43057FF4EBAE12E74FEA410266
:1009D000B2F1E04324BFB3F5001CDCF1FE5C0DD99D
:1009E00001F0004C4FEAC0024CEA5070B2F1004FE7
:1009F00040EB830008BF20F00100704711F0804FEA
:100A000021D113F13872BCBF01F00040704741F4AE
:100A100080114FEA5252C2F11802C2F1200C10FAB2
:100A20000CF320FA02F018BF40F001004FEAC12396
:100A30004FEAD32303FA0CFC40EA0C0023FA02F33A
:100A40004FEA4303CCE77FEA625307D150EA013310
:100A50001EBF4FF0FE4040F44000704701F00040E0
:100A600040F0FE4040F40000704700BF53B94AB95F
:100A7000002908BF00281CBF4FF0FF314FF0FF30A6
:100A800000F00CB8ADF1080C6DE904CE05F050FB98
:100A9000DDF804E0DDE9022304B07047704700BFD1
:100AA0000348044B834202D0034B03B118477047FD
:100AB0006000002060000020000000000548064B98
:100AC0001B1AD90F01EBA301491002D0034B03B14C
:100AD0001847704760000020600000200000000000
:100AE00010B5064C237843B9FFF7DAFF044B13B176
:100AF0000448AFF300800123237010BD6000002084
:100B0000000000006C64000808B5054B1BB10549E6
:100B10000548AFF30080BDE80840FFF7CFBF00BF36
:100B200000000000640000206C640008B0FA80F24D
:100B300038B5520904460D4610484FF4805102F072
:100B4000D7FDA4F10102B2FA82F20C484FF4005131
:100B5000520902F0CDFDA4F10202B2FA82F2074876
:100B60004FF48041520902F0C3FD2A460348BDE814
:100B700038404FF4004102F0BBBD00BF000C024002
:100B80002DE9F04FA5B0002402F028F90021302211
:100B900018A804F03DFECDE91344CDE91544904D6D
:100BA000119417942A6C8F4BDFF8888242F08052A0
:100BB0002A642A6C02F080521192119A12941A68D7
:100BC00042F480421A601B6803F480431293129B24
:100BD00001224FF480330226CDE918234FF480031D
:100BE000CDE91E6308224FF4A873CDE9202318A88D
:100BF00002220723CDE9222302F08AF90F2313935F
:100C00004FF4A0574FF48053052113A8CDE9167374
:100C1000CDE9146402F09AFBCDE91A440E941C94B9
:100C20002B6B714843F001032B632B6B03F0010323
:100C30000E930E9B0F942B6B33432B632B6B334024
:100C40000F930F9B10942B6B43F004032B632B6BC0
:100C500003F004031093109B13942B6B43F00803D1
:100C60002B632B6B03F0080313934FF470420123A3
:100C700018A9CDE91823139B02F026FC5A482246F6
:100C80004FF4704102F034FD01274FF404130122A8
:100C900056481A9718A9CDE9182302F015FC3146D9
:100CA0002246062002F0DEF8062002F00DF94FF48D
:100CB00004134FF400524E481A9418A9CDE9182392
:100CC00002F002FC22460321282002F0CBF8282063
:100CD00002F0FAF84749484A484B0C62C1E9002340
:100CE00008464FF48043C1E90434C1E90244C1E934
:100CF000064403F0D9FB424A424B136010464FF4BE
:100D0000E1330C25C2E904455360C2E90244C2E95B
:100D1000064402F095FD3C4BDFF81CC15D611846AE
:100D20003A4D1C61C3E90244C3E906444FF4612310
:100D3000C0E900C302F084FD4FF0804E5323C5E9A3
:100D400000E328464FF0FF33EB60AC602C61AC61F0
:100D500003F0E6FF2E4A40F24733C2E90083104613
:100D600040F2E7338026D36094601461966103F00B
:100D7000D7FF224639461D2002F074F81D2002F0EC
:100D8000A3F801F0E5FE224803F070FE214801F0CF
:100D9000DDFF214800F0F4FE1F491B4A1F4801F007
:100DA00037FB1F4800F04AFD1E4800F07DFE114948
:100DB0001D4800F011FB002840D0034631461B4A75
:100DC0001B4804F0F3FC81B2194801F0B9FE064853
:100DD0004FF4804102F090FC642002F01FF8F6E727
:100DE0000038024000700040000C02400000024049
:100DF00000080240785F012000540040801A06007D
:100E0000E85E012000440040305F01209C5E01202C
:100E1000545E01203412CDABC8560020800800205B
:100E2000205E012014540120345E012084660008F5
:100E3000E0DD01200004004000100140DFF89CC20A
:100E4000964F0CF1300E3C4666460FCE764504F1C7
:100E500010040CF1100C44F8100C44F80C1C44F86D
:100E6000082C44F8043CEFD1BCF80430DCF8000056
:100E7000A3809CF80630206036218848A37101F0D9
:100E80005FFE4FF4FA7001F0C9FF854800F030FBB7
:100E900040B184498148412204F0EEFC7F48402162
:100EA00001F04EFEDFF838C27C4C0CF1300E664685
:100EB0000FCE764504F110040CF1100C44F8100C20
:100EC00044F80C1C44F8082C44F8043CEFD1BCE86E
:100ED0000300BCF800302060616023816F486F4CD4
:100EE000392101F02DFE70497048012202F0E2FD27
:100EF000DFF8F0C10CF1300E66460FCE764504F1F6
:100F000010040CF1100C44F8100C44F80C1C44F8BC
:100F1000082C44F8043CEFD1BCE80300BCF80030D6
:100F20002060616023815D48614CDFF8ACA1DFF88F
:100F30009C91DFF8B481392101F002FE03220A21DD
:100F40004FF4FA73CDE902211021CDE90031594A5D
:100F50005248802104F02AFC4FF0000B4F484021FA
:100F600001F0EEFD01F054FECDF82CB02378B3B1C2
:100F70002B6851494A48002222705B6A00F040FC0D
:100F8000002870D00B9B4D4A4448802104F00EFC91
:100F900081B2424801F0D4FD2378002BE8D101F062
:100FA00037FF9AF8083A06462BB1A0EB0B03B3F5CE
:100FB0007A7F80F09B8099F80030023B032B5ED94A
:100FC00098F80030002BD1D0374B002188F8001062
:100FD0001A78772AD3B21CD8712B40F2D180723B99
:100FE000052B16D8DFE803F0362D1524151B344EDB
:100FF0000223344A13700FCE38607960BA60FB6008
:101000000FCE386179612548BA611F21FB6101F07B
:1010100097FD25492548012202F04CFDA6E72A4804
:1010200001F032F820492148012202F043FD9DE7FA
:10103000264801F005FC1C491C48012202F03AFD3B
:1010400094E7224801F05CFC17491848012202F09D
:1010500031FD8BE71D4801F023FC134913480122A1
:1010600002F028FD82E71A4A13491A4800F0F6FBFD
:101070001749194800F01EFD2B685B6A8FE7114B7A
:10108000012118781E46FFF751FD104801F000FDC0
:1010900030780021FFF74AFD92E700BFE0DD012034
:1010A000345E0120F86600087E000020E85E012022
:1010B0007F000020B467000864080020F46700087F
:1010C000146900087C000020C85600208008002019
:1010D00050080020205E012014540120C066000842
:1010E0003C670008786700087D0000202B685049A5
:1010F0005048D3F824B000F009FD002860D02B68D8
:101100004B495A6A4C485B6A0C93A2EB0B020D9256
:1011100000F0ACFD484800F097FF0B9B0D9A01339F
:101120000B932B685B6A08920C9A9B1A0993434BAA
:1011300083461868FFF7E0F9CDE90601404B1868CF
:10114000FFF7DAF9CDE904013E4B1868FFF7D4F94F
:101150000B9B3D4ACDF800B0CDE9020180213B4810
:1011600004F024FB81B2394801F0EAFC5846002122
:10117000FFF7DCFC99F80030012B3AD9B3461CE7A5
:10118000312B33D0322B3FF432AF302B7FF441AFD1
:101190002F4B304E19700FCE38607960BA6007CE91
:1011A000FB603861337879612848BA611C213B774C
:1011B00001F0C6FC28492948012202F07BFCD5E653
:1011C000DFF8ACC0BCE80F0038607960BA60BCE8FA
:1011D0000700FB6038619CF8003079611B48BA61F8
:1011E0001C213B77B34601F0ABFCBFE61C4E01234C
:1011F000FFE6174B0E491A781A4801F025F908B98D
:10120000B346D8E6184B194A93F8363E0193104B73
:101210000E481B7800930A23029380210B9B04F055
:10122000C5FA81B2094801F08BFCB346C3E600BFA2
:101230008000002014540120C85600201CD5002036
:1012400018D5002014D500203C680008E0DD0120FE
:101250007C000020D46800087E000020E85E0120A9
:10126000F46800088008002080480020906800088A
:101270001C680008044B02689A4200D07047034B78
:1012800001221A70704700BF000400407F00002058
:10129000044B02689A4200D07047034B01221A7037
:1012A000704700BF004400407D00002010B54FF0A3
:1012B0000A0C88B00E23CDE9013C04AB0093144620
:1012C00001233B2203F054FA034638BBBDF810C09B
:1012D000BDF81210BDF814001A469CFA9CFC6CF381
:1012E0000F0249BA61F31F422260BDF81A20BDF80F
:1012F000181052BA6281BDF81C2049BA218152BA35
:10130000BDF81610A28140BA1A4649BA60F30F021E
:1013100061F31F421846626008B010BD064A0748D4
:10132000802104F043FA81B2044801F009FC012352
:10133000184608B010BD00BF34690008E0DD012088
:1013400030B587B00A23029301240DF11703CDE9CC
:1013500000340D468DF8172023460A4601790068AF
:1013600003F068F908B907B030BD074A00902B4672
:101370008021064804F01AFA81B2044801F0E0FB2B
:10138000204607B030BD00BF60690008E0DD0120E5
:1013900030B50A2385B00124CDE9014300920D4602
:1013A0000A4623460179006803F0E2F908B905B05E
:1013B00030BD074A00902B468021064804F0F6F91C
:1013C00081B2044801F0BCFB204605B030BD00BF2F
:1013D00090690008E0DD012030B5002385B00022CF
:1013E0004FF0D00C0160828380F804C08360C3603A
:1013F0000361436183610DF10F0275210446FFF71C
:10140000C7FFD8B99DF80F30682B1BD1344A354837
:10141000802104F0CBF93348222101F091FB802296
:101420006B212046FFF78CFF40B9642001F0F6FCE9
:1014300001226B212046FFF783FF90B1012528464A
:1014400005B030BD6821284A00912648802104F06B
:10145000ADF924483A2101F073FB0225284605B076
:1014600030BD0A2001F0DAFC092219212046FFF7DD
:1014700067FF0028E2D103221A212046FFF760FF10
:101480000028DBD102461B212046FFF759FF002828
:10149000D4D102461C212046FFF752FF0028CDD1AF
:1014A000012238212046FFF74BFF0028C6D1A02299
:1014B00037212046FFF744FF05460028BED1012111
:1014C0006422FA232177074801920093074A0223F6
:1014D000802104F06BF90348422101F031FBAEE7B3
:1014E000006A0008E0DD0120C0690008286A0008E1
:1014F0002DE9F047037F90B0002B00F0ED807E4A8D
:10150000C823802106467D480024002504F04EF9BA
:101510007A48362101F014FBCDE90A45CDE90845AA
:10152000CDE906454FF0C80AA046A946337F002BF7
:1015300000F0D280317930680CAAFFF7B7FE074679
:10154000002840F0C580BDF93800FEF7C3FF024611
:101550000B46DDE90601FEF771FECDE90601BDF996
:101560003A00FEF7B7FF02460B4640464946FEF7F3
:1015700065FE8046BDF93C008946FEF7ABFF02469A
:101580000B46DDE90801FEF759FECDE90801BDF97A
:101590003000FEF79FFF02460B46DDE90A01FEF729
:1015A0004DFECDE90A01BDF93200FEF793FF024678
:1015B0000B4620462946FEF741FE04460A200D460A
:1015C00001F02CFCBAF1010AB0D1DDE906014C4B67
:1015D0000022FFF713F944A3D3E90023FFF70EF924
:1015E000FFF7F4F98246464BC6F808A04046494644
:1015F0000022FFF703F93CA3D3E90023FFF7FEF82D
:10160000FFF7E4F980463E4BC6F80C80DDE908019F
:101610000022FFF7F3F834A3D3E90023FFF7EEF835
:10162000FFF7D4F98146364BC6F81090DDE90A0180
:101630000022FFF7E3F8334B0022FEF7B5FF2CA39F
:10164000D3E90023FEF7B0FFFFF7C0F92C4B706120
:10165000002220462946FFF7D1F82A4B0022FEF748
:10166000A3FF23A3D3E90023FEF79EFFFFF7AEF904
:10167000B0614846FEF740FFCDE904014046FEF761
:101680003BFF0B4602465046CDE90223FEF734FFEE
:101690001D4ACDE900018021184804F087F881B285
:1016A000164801F04DFAB069FEF726FF02460B46D8
:1016B0007069CDE90223FEF71FFF144ACDE900014E
:1016C00080210E4804F072F881B20C4801F038FA1B
:1016D000384610B0BDE8F0870427384610B0BDE8A2
:1016E000F08700BFAFF300800000000000606040A2
:1016F00000000040019D23406C6A0008E0DD0120ED
:10170000000069400000103FA46A0008D46A000885
:10171000B1F900309FED356ADFED356A90ED057A5D
:101720009FED345ADFED345A07EE903AF8EEE77A3F
:1017300067EE867A67EEA67A77EEC77A9FED2F7A04
:10174000C2ED007AB1F90230D0ED064A07EE903AC8
:10175000F8EEE77A67EE867A67EEA67A77EEE47AB5
:10176000C2ED017AB1F9043007EE903AF8EEE77A6B
:1017700067EE867A67EEA67AC2ED027AB1F9083092
:1017800090ED026A06EE903AF8EEE66AC6EE877AC7
:1017900077EEC67AC2ED037AB1F90A3090ED036AAA
:1017A00006EE903AF8EEE66AC6EE877A77EEC67AEB
:1017B000C2ED047AB1F90C3090ED046A06EE903A6D
:1017C000F8EEE66AC6EE877A77EEC67AC2ED057A5B
:1017D000B1F9063007EE103AB8EEC77AC7EE057ACF
:1017E00077EEA57AC2ED067A704700BF0000803818
:1017F0000AE81C410000AA43B81E1242000003433D
:1018000030B5037F87B0A3B103460D4602AA017924
:1018100000680193FFF74AFD044610B1204607B067
:1018200030BD01982A4602A9FFF772FF204607B093
:1018300030BD0424204607B030BD00BF0023DFF8D0
:1018400018C00449036000224360C0F808C0C160AA
:10185000027470470AD7233C48E17A3F00B52DED6A
:10186000068BD1ED009AD1ED028A9FED4D9A91ED54
:10187000018A9FED4CAA68EEA88A69EEA97A85B024
:1018800077EEA87AB0EE480AF1EEE70ACDE901203A
:101890000391B4EEE09AF1EE10FAC8BFF0EE490AF7
:1018A00003F03EFB28EE088AF0EE407A38EE288AF4
:1018B000B0EE690AF1EEC80A67EE8A8AB4EEE09AE1
:1018C000F1EE10FAC8BFF0EE490A03F029FB0298C6
:1018D000019A037C039920EE0A0ADBBB01230374FF
:1018E00080ED010AC0ED008AD1ED046A91ED037A22
:1018F000D1ED055AD1ED007A91ED016A26EEA65A96
:1019000027EE077AD1ED026AC2ED008A37EE057A3A
:1019100065EEA55A26EE066A67EEA77A37EE257AB7
:1019200077EE867A66EEA66AB1EEC76A43685360C0
:1019300077EEA67A92ED027A82ED026AF1EEE76A1C
:1019400076EE477AC2ED036AC2ED047A05B0BDECCB
:10195000068B00BDD0ED037AD1ED046A91ED037AD8
:1019600090ED026A90ED005AD0ED015A27EE877A89
:1019700067EEA67AF7EE006A76EEC66A37EE057A6B
:1019800077EEA57A27EE067A66EEA88A67EE867A63
:1019900026EE800A77EE288A37EE800AA0E700BF9D
:1019A000BD378635E02E6542002961D000B5DFEDF8
:1019B0003C7A85B003468A0000EB810E8446BCEC7D
:1019C000017AE64577EE877AF9D106EE901AB8EEFD
:1019D000E66A9FED337AC7EE866AF3EC017A77EE1A
:1019E000E67A9E4567EEA77A37EE277AF5D1012988
:1019F000034629D0013907EE901AF8EEE77A87EE10
:101A0000270AB5EE400AF1EE10FA35D4F1EEC07AAD
:101A10009FED247AF4EEC77AF1EE10FA22D49FED0E
:101A2000217A77EE877AB7EE006A86EE277A1A4433
:101A3000D3ED007A77EEE67A67EE877AE3EC017A07
:101A40009A42F5D105B000BDB5EE407AF1EE10FA3C
:101A50001FD4F1EEC77A9FED137AF4EEC77AF1EE58
:101A600010FADCD5002105B05DF804EB03F0D0BE20
:101A70000A46002103F0CCBECDE90220CDED016A7B
:101A800003F0BCFADDE90223DDED016AF0EE407AF5
:101A9000C5E7CDE90220CDED016AB0EE470AEFE7D8
:101AA0000000000095BFD63340F60C22002103F061
:101AB000AFBE00BFD0F8002AD1F800C002F07F030B
:101AC00003EB830300EB83030132C3F800C0D1F8BA
:101AD00004C0C3F804C0D1F808C0C3F808C0D1F8E6
:101AE0000CC0C3F80CC009691961D0F8043AC0F8F9
:101AF000002A7F2B03D9012380F8083A704701336D
:101B0000632BC0F8043AF6D8704700BF38B590F898
:101B1000083A93B3D0F8003A0D460C4601F5966E9C
:101B2000A3F1640C01F5C8712A460CF07F0303EBA6
:101B3000830300EB8303D3ED007AE2EC017AD3ED6B
:101B4000017AC2ED637AD3ED027AC2EDC77AD3EDA2
:101B5000037AEEEC017A1B69CEF88C318A420CF1E3
:101B6000010CE2D105F5FA652046642104F5C8743C
:101B7000FFF71AFFA542F7D10123184638BD00BF71
:101B80002DE9F04100F570432DED028B03F6FC4288
:101B9000054631489FED318A86B0106005F57D42DB
:101BA0004FF00008002105F57D40116005F5FC4768
:101BB0004022C3F8048D83F8488D4146083005F56E
:101BC000FA4603F025FE40224146304603F020FE4F
:101BD0002C46C7F80080C7F80480C7F8088001F0D9
:101BE000BFF820EE080AA4EC010AB442F7D105F5CB
:101BF000FA459FED1B8A403501F0B2F820EE080A45
:101C0000A5EC010ABD42F7D10FA3D3E9002310A52B
:101C1000D5E90045CDE9042303211023CDE90031A6
:101C2000CDE902450F4A10484FF4FA73802103F0C2
:101C3000BDFD81B20C4806B0BDEC028BBDE8F041A1
:101C400000F07EBFAFF30080000000A081FBE13F09
:101C5000000000C0ED9ABB3F0AD7233C6ED7DC3DA5
:101C60000DDC0F3FFC6A0008E0DD012070B52DEDB2
:101C7000028B00F5FA449FED4D6A0D4600F5FA4ED1
:101C800000F5FA6C40340146BEEC017A2A460B4658
:101C9000F3EC017AF2EC016A67EEA67A634537EE5F
:101CA000277AF5D1B5EEC07AF1EE10FAD4BFF0EE96
:101CB000467AF0EE477AA6458EED557ACEED427A19
:101CC00001F5FA6103F5FA6CDED100F5FC4500F58B
:101CD000FC4400F5FB410C35B4EC017AA1F1400362
:101CE0002A46F3EC017AF2EC016A67EEA67A994291
:101CF00037EE277AF5D1A54284ED257A84ED127A64
:101D000001F14001E8D100F5E04606F5656306F60D
:101D10004C62D3ED007A92ED007A9FED248AF4EEC6
:101D2000C77A06F65463F1EE10FAD3ED008AD8BFF5
:101D3000F0EE477AF4EEE78AF1EE10FA00F5FC4493
:101D400000F5FC45D8BFF0EE678A4C34583594ED69
:101D5000000A30EE680A03F0E5F8A4EC010AA54297
:101D600038EE008AF3D19FED127A38EE078AF7EE4B
:101D7000007A87EE887A06F64C6206F5656306F609
:101D80005466D2ED007A67EE877AC2ED007AD3ED21
:101D9000007A67EE877AC3ED007AD6ED007A67EEB7
:101DA000877AC6ED007ABDEC028B70BD00000000A2
:101DB00095BFD6332DE9F04100EB820300F5E042F8
:101DC00000F570450C4602F64C6105F54B66096856
:101DD000316002F5656102F60C670E6805F6B441E4
:101DE00003F57C430E6002F6546105F6B8420968BB
:101DF0001160D3ED2C7AB7EE007A77EEC77A00F552
:101E00007B4600F57C4C00F57C4100F5FC4800F574
:101E1000FC4EC3ED2C7AE8360CF1B00CBC3108F165
:101E200010080EF14C0EBCEC017A0CED047AD7EDE3
:101E3000007A67EE877A4346324646ED017AB3EC84
:101E4000017A5CED017A67EE877A7345E2EC017AFC
:101E5000F5D18C4506F14006E5D100F5FA4305F5CC
:101E60004B6705F6B4469FED2D6A403300F5FB4CF9
:101E700005F6B8451BE0D2ED007AD7ED006A93ED88
:101E80000F7A96ED005AD5ED005A66EEA76A27EE56
:101E9000057AD3ED1F7A76EE866A67EEA57A37EE7D
:101EA000267A634577EE877AE1EC017A0FD0D3ED9D
:101EB000467AF5EEC07AF1EE10FA1A4603F1040301
:101EC000D9DCF0EE467A6345E1EC017AEFD100F51A
:101ED000FD4500F57B4E24350EF1E40029460EF158
:101EE000A40E04F5FA6C9EED467A2346AEEC017A18
:101EF0000A46F3EC017A67EE277A6345E2EC017A51
:101F0000F7D1864501F5FA61EDD12846B1EE040A14
:101F1000BDE8F0414FF4FA5100F044BE000000006B
:101F200000F5704C0CF6FC4300F5FD42D3ED006A61
:101F3000243200F5FA410346B2EC017AD3ED007A7F
:101F400027EE267A77EEC77AE3EC017A8B42F3D15B
:101F500000F57B4200F5FA43A4324033B2EC017A3B
:101F6000D1ED007A27EE267A77EEC77AE1EC017A96
:101F70009942F3D100F57B42E43200F5FC41B2EC2A
:101F8000017AD3ED007A27EE267A77EEC77AE3EC72
:101F9000017A8B42F3D100F57C4300F5FC40A43379
:101FA0000C30B3EC017AD1ED007A27EE267A77EE89
:101FB000C77AE1EC017A8842F3D1DCF8043D0133C1
:101FC000CCF8043D704700BF30B583B015460446D9
:101FD0000191FFF74BFE05F5FC53123304EB83032D
:101FE000D3ED017A9FED170AB4EEE70AF1EE10FA8D
:101FF000D8BFB0EE670A02F0D1FF04F5704CB1EE25
:10200000400A9CF8483D01998DED010A03F57D5089
:102010000230013304EB800003F00F0380ED000A6F
:102020008CF8483D04F57D4383ED000A2A4620469E
:10203000FFF7C0FE2046FFF773FF9DED010A03B0D6
:1020400030BD00BF95BFD63300F5E04303F64C61C9
:1020500003F5656291ED007AD2ED007AB4EEE77A8D
:10206000F1EE10FA0DD4F0EE477A002003F6546337
:1020700093ED007AB4EEE77AF1EE10FAC8BF0220D1
:1020800070470120F2E700BFF0B52DED028B90ED17
:10209000008A9FED4A7A87B00446F0EE488A00F540
:1020A000FA420346F3EC017AB4EEE78AF1EE10FA55
:1020B000F4EEE87AC8BFB0EE678AF1EE10FAC8BF56
:1020C000F0EE678A934237EE277AEBD1DFED3C7A68
:1020D000C7EE277A17EE900AFEF70EFA02460B4675
:1020E00018EE900ACDE90423FEF706FA0B460246E5
:1020F00018EE100ACDE90223FEF7FEF9314ACDE9C8
:1021000000018021304803F051FB81B22E4800F0DD
:1021100017FD04F5704304F57D42D3F8043D1068C3
:102120001D46FEF7E9F904F57D4304F57D42DFED38
:10213000237A06460F4608334832B3EC017A9342BD
:1021400077EE877AF9D19FED217A67EE877A04F5E9
:10215000E04417EE900AFEF7CFF91D4ACDE90201DF
:102160002B46CDE900678021174803F01FFB81B2A1
:10217000154800F0E5FC04F654631868FEF7BCF956
:10218000CDE9040104F5656304F64C641868FEF7B4
:10219000B3F9CDE902012068FEF7AEF90D4ACDE9A9
:1021A00000018021084803F001FB81B2064807B016
:1021B000BDEC028BBDE8F04000F0C2BC00000000A6
:1021C0000000FA453C6B0008E0DD01200000803D86
:1021D000746B0008A86B000810B50C4647F6126136
:1021E0008B4284B053D9230A48F2013153701F2324
:1021F000518013711470511D00F5FA4E034653F8C7
:1022000004CB41F804CB7345F9D102F5FA4100F54E
:10221000FA43053140335EF804CB41F804CB7345F3
:10222000F9D102F5FA41453100F5FC4E53F804CBE3
:1022300041F804CB7345F9D102F5FC4300F5FC40AD
:1022400005330C305EF8041B43F8041B7045F9D1CC
:1022500047F611611046039200F0C0FC039A02F5A4
:10226000E0430146000A83F8111E83F8120E0F4A5C
:102270000F48CDE9004147F61363802103F096FA39
:102280000B483D2100F05CFC002004B010BD47F677
:102290001361084A00910648802103F087FA81B251
:1022A000034800F04DFC052004B010BD146C00087C
:1022B000E0DD0120E86B000830B5134647F61262F6
:1022C000934285B07AD90B880C464FF602618B4257
:1022D0004ED1A378012B58D1B4F8033041F6837165
:1022E0008B425ED104F5E0430546B3F8113E0393FB
:1022F00047F61161204600F071FC039B83426CD1CC
:10230000611D2A4605F5FA4C51F8040B42F8040BFE
:102310009445F9D104F5FA4105F5FA420531403208
:1023200051F8040B4CF8040B6245F9D104F5FA415D
:10233000453105F5FC4C51F8040B42F8040B94456B
:10234000F9D104F5FC4202F11104053252F8041BE4
:102350004CF8041B9442F9D1264A2748802103F007
:1023600025FA2548352100F0EBFB002005B030BDF3
:10237000224A00912048802103F018FA1E482F219C
:1023800000F0DEFB012005B030BD1D4A1A48802157
:1023900003F00CFA1848252100F0D2FB022005B00A
:1023A00030BD184A00911448802103F0FFF981B232
:1023B000114800F0C5FB032005B030BD47F613619E
:1023C000114A00910C48802103F0F0F981B20A48CB
:1023D00000F0B6FB052005B030BD0C4A009080210E
:1023E000054803F0E3F90448322100F0A9FB04207A
:1023F000BCE700BF386D0008E0DD01207C6C000800
:10240000AC6C0008D46C0008506C0008046D000827
:1024100070B50E461546044644F64862002103F0A6
:10242000F7F9C4E901658021054A06480A2303F04B
:10243000BDF9BDE870400348322100F081BB00BF08
:10244000786D0008E0DD012090F800C0BCF1010FBC
:1024500049D8F0B500F5804583B095F8363E092B94
:1024600017460E4604461BD8BCF1000F4AD04FF465
:10247000FA6202FB034031460C30019303F0FCF991
:10248000019B44F62C6223449F5495F8363E013359
:10249000DBB2092B85F8363E27D8012003B0F0BD0A
:1024A000294D2A4C05F1200EAC46BCE80F00F4453E
:1024B00004F1100405F1100544F8100C44F80C1C4C
:1024C00044F8082C44F8043CEED107CD2B88A381B6
:1024D000AB78206061601D48A2602E21A37300F0DC
:1024E0002FFB0020DAE70020704702232370184AF0
:1024F00016480A23802103F059F91448362100F0C8
:102500001FFBCAE7DFF84CC0DFF840E0012303708F
:10251000BCE80F00CEF80000CEF80410CEF808207A
:10252000CEF80C30BCE80F00CEF81000CEF8141036
:1025300070461F21CEF81C30CEF8182000F000FBAA
:1025400095F8363E93E700BFAC6D0008E0DD012052
:10255000FC6D0008DC6D00082DE9F04D00F58047AA
:102560002DED028BD7F8383E434A013384B08021E9
:102570008046424803F01AF981B2404800F0E0FA80
:1025800097F8363E002B72D008F59C459FED3C8AAB
:102590002B3508F10C06002415F8012FD8F804009B
:1025A0003146FFF711FD10EE100A38EE008AFDF7F4
:1025B000A3FF2A7897F8363E013482468B46CDE950
:1025C000003280212F4A2D482346CDE902AB03F08B
:1025D000EDF881B2294800F0B3FA97F8363EE2B23E
:1025E000934206F5FA66D7D807EE903AB8EE677AC6
:1025F000C8EE077A07F56462234E204DC2ED007ADB
:10260000D7F83C2E1344C7F83C3E17EE900A0293CD
:10261000FDF772FF1D4ACDE900018021174803F044
:10262000C5F881B2154800F08BFA06F12007344650
:102630000FCCBC4205F1100506F1100645F8100C50
:1026400045F80C1C45F8082C45F8043CEFD1B3784C
:102650003288AB7009482A80222100F071FA0323E6
:1026600088F8003004B0BDEC028BBDE8F08D9FED22
:10267000047AB0EE478ABBE7346E0008E0DD012043
:10268000000000006C6E0008DC6E00089C6E000804
:1026900030B5604A85B047F61363044680215E4832
:1026A00003F084F85C482E2100F04AFA5B4A606827
:1026B00047F613634FF60161FFF78EFD002861D1E5
:1026C00042F210735549A06847F6136201F0ECF826
:1026D0000346002844D1524DDFF83CE1AC46BCE84B
:1026E0000F00CEF80C304F4BCEF800009C450EF199
:1026F000100E05F110054EF80C1C4EF8082CEDD10B
:102700002A88AB784448AEF8002032218EF8023097
:1027100000F016FA4FF00000ADF80C0041F28833DB
:10272000A068022203A901F03BF9002838D19DF8E6
:102730000C309DF80D10AC2B01D1AC2942D03A4A97
:1027400000913548802103F031F81F21324800F014
:10275000F7F904F580420021FD2582F8441E0BE0C4
:10276000324A2D48802103F021F881B22A4800F036
:10277000E7F9FF2504F5804282F8455E05232370C2
:1027800005B030BD05462A4A23482B46802103F078
:102790000DF881B2204800F0D3F904F58042EBE750
:1027A0000346244A1C48802103F000F881B21A48ED
:1027B00000F0C6F904F580424FF00003FE2582F8D0
:1027C000443ED9E704F580430122DFF870E0124D62
:1027D00083F8442EF446BCE80F00EB60164B2860EB
:1027E0009C4505F110050EF1100E45F80C1C45F83E
:1027F000082CEFD1BEF80430DEF80000AB809EF864
:1028000006302860AB710448362100F099F90423A2
:10281000B5E700BF006F0008E0DD0120CC5F0120BC
:10282000846F0008B46F0008E86F0008586F000854
:102830002C6F0008B86F00083C7000080C7000088E
:102840000378012B00D9704730B5124DDFF84CE00A
:1028500083B084462C460FCCCEF80C300E4BCEF80D
:1028600000009C420EF1100E05F110054EF80C1CF4
:102870004EF8082CEED12868CDF804C02321CEF8FC
:102880000000064800F05CF9019B03221A7003B0B7
:1028900030BD00BF4470000864700008E0DD012016
:1028A00010B544F62C62044600210C3002F0B0FF53
:1028B00000232370DFF840C0DFF840E004F58044D7
:1028C00084F8453EBCE80F00CEF80000CEF80410B6
:1028D000BCE80300CEF80C30BCF80030CEF8100095
:1028E000CEF81410CEF80820AEF818307046192132
:1028F000BDE8104000F024B968700008E0DD012058
:1029000030B5037800F58044052B96BF144A154B6B
:1029100052F8233094F8442E04F5646189B00546DA
:10292000086807930492FDF7E7FDCDE90201D4F8AA
:102930003C0ED4F8381E079B0B4ACDE900108021CD
:102940000A4802F033FF011E03DD084889B200F097
:10295000F7F8686809B0BDE83040FFF795BB00BFE5
:102960006C730008706D000884700008E0DD0120C1
:1029700038B53E4A47F61363044680213C4802F0CE
:1029800015FF3B48352100F0DBF83A4B3A49A06887
:1029900047F6136201F004F8002854D13649606804
:1029A00047F61362FFF788FC054600283AD104F584
:1029B00080402946D0F8383E5D1CC0F8385E44F6A9
:1029C0002C6204F10C0002F023FF2B462B4A28480E
:1029D0002B4D802102F0EAFE81B2254800F0B0F8CC
:1029E000DFF88CE0AC46BCE80F00CEF80C30254B8D
:1029F000CEF800009C450EF1100E05F110054EF8C2
:102A00000C1C4EF8082CEDD12B788EF800301848AD
:102A1000202100F095F8002323702046BDE83840BF
:102A2000FFF76EBF184A12482B46802102F0BEFE07
:102A300081B20F4800F084F804F58042052382F843
:102A4000455E237038BD0346104A0948802102F0D4
:102A5000ADFE81B2064800F073F804F58042FC2117
:102A6000052382F8451E237038BD00BFCC700008D6
:102A7000E0DD012020A10700CC5F0120607100088B
:102A800088710008A87100083471000800710008FE
:102A900038B503780446052B04D8DFE803F00E0EA2
:102AA0003D41450F224A2348802102F07FFE81B23A
:102AB000204800F045F80523237038BD00F5804517
:102AC0001D4A95F8453E1B48802102F06FFE81B2F9
:102AD000184800F035F844F62C62002104F10C008F
:102AE00002F096FEDFF854C00023237085F8453EBF
:102AF000BCE80F000F4C20606160BCE80300E3609D
:102B0000BCF8003020616161A26023832046192156
:102B1000BDE8384000F014B8BDE83840FFF71CBDF0
:102B2000BDE83840FFF7B4BDBDE83840FFF720BF2F
:102B3000DC710008E0DD0120AC710008687000085D
:102B40000A4664230146014800F0AEBEE85E01205B
:102B500010B5104801F054FFDFF844E0DFF83CC046
:102B6000BEE80F00ACE80F00BEE80F00ACE80F00B5
:102B70009EE803004CF8040B2CF8021B4FEA114EA0
:102B80008CF800E0BDE81040034804496423262285
:102B900000F08ABE9C5E0120E85E0120E0DD01209D
:102BA0003C720008C1B100EB8101B1EE407A03E054
:102BB00000ED010A81420FD0F0EC017AF4EEC07A08
:102BC000F1EE10FAF4DCF4EEC77AF1EE10FAF1D57A
:102BD000814200ED017AEFD1704700BF91B1421EF2
:102BE000DFF828C011444FF6FF7012F8013F80EA69
:102BF0000320030A91423CF8133083EA002398B281
:102C0000F3D170474FF6FF70704700BF846400082F
:102C1000F0B583B0EFF30885404E414FDFF828C18F
:102C2000404CAB1B7A1B01930092BCE80F000FC411
:102C30009CE80F0007C41C222370A4F11C0164232C
:102C4000394800F031FE3B46384A8021A4F11C008F
:102C500002F0ACFDA4F11C0164232122324800F0F3
:102C600023FE2B46324A334D8021A4F11C0002F092
:102C70009DFDA4F11C01642321222B4800F014FEC9
:102C800033462D4A8021A4F11C0002F08FFDA4F1EF
:102C90001C0164232122244800F006FE009B274AE1
:102CA0008021A4F11C0002F081FDA4F11C0182B27C
:102CB00064231D4800F0F8FD019B214A8021A4F106
:102CC0001C0002F073FDA4F11C0182B264231648BB
:102CD00000F0EAFD1B4A4FF4FA438021A4F11C00E6
:102CE00002F064FDA4F11C01642322220E4800F0CE
:102CF000DBFD0FCDA4F11C0CACE80F0095E80F0034
:102D0000ACE80700084823701C226423A4F11C01CE
:102D100003B0BDE8F04000F0C7BD00BFB0DF012048
:102D200000000220E0DD0120E85E0120847200083E
:102D3000A47200084C730008C4720008E472000812
:102D4000087300082C7300086472000800B9024878
:102D5000024B1860704700BFEFBEADDE00000020E0
:102D6000074A08481168084B00FB013300EE103A8F
:102D7000BBEEE00AF7EE007A30EE670A13607047A8
:102D8000000000200D6619005FF36E3C10B5104B7B
:102D9000104A1B68127882B004464FF47A70B0FB78
:102DA000F2F0B3FBF0F000F09DF808B90F2C02D957
:102DB000012002B010BD0246019021464FF0FF30C5
:102DC00000F050F8044B01981C6002B010BD00BF29
:102DD0000C000020040000200800002008B50B4B68
:102DE0001A6842F400721A601A6842F480621A602B
:102DF0001A6842F480721A60032000F021F80F2054
:102E0000FFF7C4FF02F01EF8002008BD003C02409E
:102E1000014B1868704700BF60DE012038B50446DA
:102E2000FFF7F6FF631C054602D0044B1B781C44D9
:102E3000FFF7EEFF401BA042FAD338BD040000208C
:102E40000749CA6803024FF6FF0003F4E06302403B
:102E5000134343F0BF6343F40033CB60704700BFBC
:102E600000ED00E000B5164BDB68C3F30223A3F1CD
:102E7000030CBCF1040F19D84FF0FF3EC3F1070358
:102E80000EFA03F30EFA0CFE22EA0E02DB4319409F
:102E900001FA0CF1114300284FEA01110ADB00F19D
:102EA000604000F5614080F8001300BD00220F2350
:102EB0009446ECE7034B00F00F00C318197600BDF1
:102EC00000ED00E0FCEC00E0002807DB044A4109CB
:102ED000012300F01F00834042F82130704700BFFB
:102EE00000E100E00138B0F1807F01D3012070479C
:102EF0004FF0E0230022586104484FF0F00C072106
:102F000080F823C09A6110461961704700ED00E017
:102F1000002800F06F8170B50368DD0782B00446B9
:102F200031D59E498A6802F00C02042A00F0F28032
:102F30008A6802F00C02082A00F0E8806368B3F5A2
:102F4000803F00F0F180B3F5A02F944B1A6800F099
:102F50007E8122F480321A601A6822F480221A607C
:102F60006368002B00F00881FFF752FF054605E07B
:102F7000FFF74EFF401B642800F2FB80874B1B6865
:102F80009B03F5D52368990729D5844B9A6812F0DD
:102F90000C0F00F094809A6802F00C02082A00F0EE
:102FA0008A80E368002B00F00E817D4B01221A60BD
:102FB000FFF72EFF054605E0FFF72AFF401B02281A
:102FC00000F2D780754B1B689E07F5D573492269BF
:102FD0000B6823F0F80343EAC2030B6023681A0767
:102FE00054D45D0732D56D4A136C13F0805300F052
:102FF000818000266B4B1B68D80540F1A880A36830
:10300000012B00F0F180052B644B1A6F00F02D812D
:1030100022F001021A671A6F22F004021A67A368ED
:10302000002B00F0B780FFF7F3FE054607E0FFF73F
:10303000EFFE41F28833401B984200F29A80574BD2
:103040001B6F9A07F3D5002E40F00981A369D3B115
:10305000524A926802F00C02082A00F0CD80022B3E
:103060004F4B4FF000021A6600F00781FFF7D0FEC9
:10307000044604E0FFF7CCFE001B022879D8474B3A
:103080001B689B01F6D4002002B070BD636903B3D6
:10309000434B0122C3F8802EFFF7BAFE054604E039
:1030A000FFF7B6FE401B022863D83C4B5B6F9B07C3
:1030B000F6D5236895E75B685A023FF572AF374B48
:1030C0001B689B0736D5E368012B33D0012002B083
:1030D00070BD334AC2F8803EFFF79AFE054604E011
:1030E000FFF796FE401B022843D82C4B5B6F9E07D0
:1030F000F6D4DEE70193136C43F080531364136C32
:1031000003F080530193019B012673E74A68510243
:103110007FF514AF214A126892037FF534AF6268DD
:10312000002A7FF430AFD1E71C4A136843F48033A0
:10313000136015E7194A2169136823F0F80343EA7D
:10314000C103136023681A077FF54BAF9EE7154A4A
:10315000136843F480731360FFF75AFE0546114B62
:103160001B68D9053FF54BAFFFF752FE401B022805
:10317000F5D9032002B070BDFFF74AFE054604E012
:10318000FFF746FE401B6428F3D8044B1B689E03E0
:10319000F6D4F7E6FFF73CFE05460CE000380240A7
:1031A0000000474200700040FFF732FE41F28833D2
:1031B000401B9842DDD8494B1B6F9B07F4D4002E6F
:1031C0003FF444AF4BE0464A1360FFF721FE05464B
:1031D00004E0FFF71DFE401B0228CAD83F4B1B68C6
:1031E0009907F6D42368FAE63C4A136F43F00103CB
:1031F000136714E701207047012B3FF467AF374B8B
:10320000E2695B6803F4800191427FF45FAF226A58
:1032100003F03F0191427FF459AF616A47F6C072F3
:103220001A40B2EB811F7FF451AFA26A520803F437
:103230004031013AB1EB024F7FF448AFE26A03F04C
:103240007063B3EB026F14BF012000201CE742F44F
:1032500080221A601A6842F480321A6080E61F4A9F
:10326000136C23F080531364F0E642F004021A67F3
:103270001A6F42F001021A67D1E6FFF7C9FD054651
:1032800005E0FFF7C5FD401B02283FF672AF134B68
:103290001B689901F5D4D4E90731626A0B4343EA0C
:1032A0008213D4E90A2052080D490C4C43EA00630A
:1032B000013A0A4843EA0243012243600A66FFF7E3
:1032C000A7FD054605E0FFF7A3FD401B02283FF6DA
:1032D00050AF23689A01F6D5D5E600BF003802400A
:1032E0000000474208B516498B6803F00C03042B15
:1032F0001BD0082B01D0134808BD4A684B684968A9
:1033000013F4800302F03F0211D10E48C1F388117B
:10331000A1FB0001FDF7AAFB094B5B68C3F3014366
:1033200001335B00B0FBF3F008BD074808BD064859
:10333000C1F388110023A1FB0001FDF797FBEBE728
:10334000003802400024F40000127A0058B1494AC3
:10335000136803F007038B4207D21170136803F060
:1033600007038B4201D0012070472DE9F04103682B
:103370009A0716D55F0705D53F4A936843F4E05393
:10338000936003681E0704D53B4A936843F4604387
:103390009360394A8468936823F0F0032343936071
:1033A0000368DD078846074621D54268012A59D0BF
:1033B000931E012B304B1B6851D9990724D52E4CF5
:1033C000A36823F003031343A360FFF721FD41F239
:1033D0008835064604E0FFF71BFD801BA84246D84F
:1033E000A3687A6803F00C03B3EB820FF3D1214A90
:1033F000136803F00703434509D982F80080126877
:1034000002F00702424502D00120BDE8F0813B688E
:103410005A0707D5184AF968936823F4E0530B4319
:1034200093603B681B0707D5134A3969936823F4F7
:10343000604343EAC1039360FFF754FF0E4A0F4C09
:1034400092680F49C2F303120346A25C0D48D340B1
:1034500000680B60FFF79AFC0020BDE8F08198013E
:10346000ADD4D1E7044B1B689C03A8D4CCE7032060
:10347000CBE700BF003C0240003802408C730008DC
:103480000C00002008000020044B05499B68054AF9
:103490000868C3F38223D35CD840704700380240E9
:1034A0000C00002084730008044B05499B68054A02
:1034B0000868C3F34233D35CD840704700380240F9
:1034C0000C000020847300082DE9F04F0023DFF882
:1034D00008E283B001264FF0030803E00133102B0C
:1034E00000F0CC800C6806FA03F202EA040CA24356
:1034F000F4D14A6802F0030202F1FF395C00B9F12D
:10350000010F08FA04F515D8826822EA0509CA688D
:10351000A24042EA090282604A68D0F80490C2F3ED
:1035200000129A4029EA0C0942EA090242604A68FC
:1035300002F00302032A25D0C26822EA05098A683C
:10354000A24042EA0902C2604A6802F00302022A6B
:1035500018D14FEAD30A00EB8A0A0A69DAF820B0D8
:1035600003F007094FEA89090F2702FA09F207FA5F
:1035700009F92BEA090B42EA0B02CAF820204A6833
:1035800002F00302A240046824EA05042243026018
:103590004A6812F4403FA1D04C4C00220192626C68
:1035A00042F480426264626C02F480420192019AA9
:1035B00023F0030202F1804203F003050F2702F516
:1035C0009C32AD0007FA05F9414F9468B84224EAED
:1035D000090421D007F58067B84252D03D4FB84268
:1035E00055D0DFF8F890484557D0DFF8F4904845BB
:1035F00059D0DFF8F09048455BD0DFF8EC904845B3
:103600005DD0DFF8E89048450CBF4FF007094FF058
:10361000080909FA05F52C4394604C68DEF8082087
:10362000E40254BF22EA0C024CEA0202CEF808205F
:103630004C68DEF80C20A70254BF22EA0C024CEAC8
:103640000202CEF80C204C68DEF80420A50354BF1B
:1036500022EA0C024CEA0202CEF804204C68DEF8A2
:103660000020E40303F1010354BF22EA0C024CEAF8
:103670000202102BCEF800207FF434AF03B0BDE877
:10368000F08F4FF0010909FA05F52C43C4E74FF01C
:10369000020909FA05F52C43BEE74FF0030909FAC0
:1036A00005F52C43B8E74FF0040909FA05F52C435A
:1036B000B2E74FF0050909FA05F52C43ACE74FF0E6
:1036C000060909FA05F52C43A6E700BF00380240B9
:1036D0000000024000080240003C0140000C024093
:1036E000001002400014024000180240001C02407A
:1036F00002B9090481617047436901EA030221EAC2
:10370000030141EA02418161704700BF026802F192
:103710000C0353E8003F23F490730C3242E800316D
:103720000029F3D1026802F1140353E8003F23F0AB
:103730000103143242E800310029F3D1036B012B5D
:1037400005D02022002380F84220036370470268DE
:1037500002F10C0353E8003F23F010030C3242E85F
:1037600000310029F3D1ECE738B50268C16813696C
:1037700023F440530B4313610446016883680069D6
:10378000CA68034360690343E06922F4164222F0E9
:103790000C0203431343CB602268A0695369244998
:1037A00023F440730343536123688B4205D0214ABD
:1037B000934202D0FFF768FE01E0FFF775FEE26971
:1037C0001921B2F5004FD4E90053A0FB010113D039
:1037D0009A009B0FFDF74AF9174AA2FB00135B09F9
:1037E000642101FB130000013230A2FB00201B0109
:1037F00003EB5013AB6038BDDA184FF000035B41A8
:10380000FDF734F90C4AA2FB00314909642303FB9C
:103810001103DB003233A2FB0323C3F342121B0963
:1038200002EB011203F4F8731344AB6038BD00BF20
:1038300000100140001401401F85EB51704700BF8C
:1038400078B310B590F84130044603F0FF021BB383
:103850002268242384F84130D36823F4005320469F
:10386000D360FFF781FF2268136923F4904313614B
:1038700021684A6922F02A024A612068C26800234E
:10388000202142F40052C260636484F8411084F83D
:1038900042106363184610BD80F84020FFF7CEFF4A
:1038A000D6E70120704700BF2DE9F041044690F8AB
:1038B0004100202882B055D10D4601B11AB901202E
:1038C00002B0BDE8F08121211F460023636484F823
:1038D00041100192FFF79CFA019AA284E284A26847
:1038E000B2F5805F06464DD04FF00008E38C9BB2E6
:1038F0009BB123681A68120604D4791C1DD11A687A
:103900001206FCD535B315F8012B5A60E28C013A4A
:10391000E284E28C92B2002AEBD122681368580646
:1039200004D47B1C22D113685906FCD52023002027
:1039300084F8413002B0BDE8F081FFF769FA801BDE
:10394000874225D327B32368DA681A681006F4D5AE
:10395000002DD8D1414631F8022BC2F30802884627
:103960005A60D3E7022002B0BDE8F081FFF750FAB9
:10397000831B9F420CD35FB12368DA681B685A0629
:10398000F4D5D3E72269002AAED1A8461546ADE7A3
:103990002023032084F8413002B0BDE8F08100BF4D
:1039A0002DE9F041044690F84200202884B061D10E
:1039B0000D4601B11AB9012004B0BDE8F081222101
:1039C0001F460023636484F8421023630192FFF7CB
:1039D0001FFA019AA285E285A268B2F5805F0646C9
:1039E0004CD04FF00008E38D9BB2EBB123681A680E
:1039F000920604D4791C1ED11A689006FCD5002DBD
:103A00002CD0A268B2F5805F04D0002A2ED12269A2
:103A1000002A2BD15B6805F8013BE28D013AE28573
:103A2000E28D92B2002AE1D12023002084F84230B6
:103A300004B0BDE8F081FFF7EBF9801B874231D37A
:103A4000002F2FD02368DA68510702D51A681207B1
:103A50001AD41A689006EED5002DD2D15B68424682
:103A6000C3F3080322F8023B9046D6E75B6803F0F5
:103A70007F03D0E7022004B0BDE8F0812269002A6C
:103A8000AFD1A8461546AEE7002503951A68039204
:103A90005B6803932046039BFFF738FE08236364AB
:103AA00084F840502023032084F8423004B0BDE85D
:103AB000F08100BF034690F84200202803D101B1F5
:103AC0001AB90120704702207047002018639A85B8
:103AD000DA851A6999622221586483F8421022B16A
:103AE0001968CA6842F48072CA6019684A6942F06B
:103AF00001024A611A68D36843F020030020D360B2
:103B0000704700BF704700BF704700BF08B5806BAB
:103B10000023C385FFF7F8FF08BD00BF704700BF53
:103B200090F84230222B4AD183680168826AB3F54B
:103B3000805F45D0002B4DD10369002B4AD14B68E3
:103B40001370826A0132C38D8262013B9BB2C385CE
:103B5000002B34D100B50168CA6822F0200283B07E
:103B6000CA600168CA6822F48072CA6001684A6942
:103B70004FF0200C22F001024A6180F842C04363FA
:103B8000026B012A2AD10363026802F10C0353E895
:103B9000003F23F010030C3242E800310029F3D13A
:103BA00003681A68D20605D501911A6801925B680C
:103BB0000193019B818DFFF7B1FF03B000BD7047FA
:103BC0000369002BBBD14B68C3F308031380826ADF
:103BD0000232B8E74B6803F07F03B1E7FDF758FB0B
:103BE00003B000BD00B501680A68D1F80CE0D1F857
:103BF00014C012F00F0F85B0034617D112F0200F3A
:103C000003D01EF0200F40F0BF80186B012848D071
:103C1000100603D51EF0800F40F08980520603D5B0
:103C20001EF0400F40F0A48005B000BD1CF0010064
:103C300067D11EF4907FE8D012F0010F0FD01EF470
:103C4000807F00F07081D3F844C012F0040F4CF074
:103C5000010CC3F844C000F0A880002856D112F02F
:103C6000020F00F0A580100700F1DC80586C0028DE
:103C7000DAD0900603D51EF0200F40F059814A6932
:103C8000596C02F0400201F008010A4340F09E80A6
:103C9000184601920093FFF737FFDDE900325A64BE
:103CA000C2E7D006B4D51EF0100FB1D000220392A7
:103CB0000A6803924A680392039A4A69B3F82CC0CF
:103CC000520640F1F180D86B0268526892B2002A25
:103CD00000F03581624580F03281DA85C269B2F543
:103CE000807F00F0D78001F10C0252E8002F22F40F
:103CF00080720C3141E8002019680A460028F2D190
:103D00009AE012F0010F49D1500742D5586C40F0AB
:103D10000200586490073ED5586C40F00400586487
:103D20001007A3D5586C40F0080058649EE793F83C
:103D30004120212A7FF478AF98681A6AB0F5805F35
:103D400000F00C81501C186212784A60DA8C013A3B
:103D500092B2DA84002A7FF467AF1968CA6822F049
:103D60008002CA601A68D36843F04003D3605BE7FF
:103D7000CA684FF0200C22F04002CA60184683F84F
:103D800041C0FFF7BFFE4FE705B05DF804EBFFF75A
:103D9000C7BE9007C0D41007C4D467E71EF4807F65
:103DA0007FF451AF12F0040FB0D112F0020F3ED1E8
:103DB00012F0080F3FF45AAF0EF0200C5CEA000C32
:103DC000B0D15A6C002A7FF45AAF2DE71846009301
:103DD000FFF79CFC009B19684A6952061ED500E05B
:103DE000196801F1140252E8002F22F04002143148
:103DF00041E800200028F3D1DA6B7AB15D49116502
:103E0000D86B009301F00CF800283FF40DAF009B35
:103E1000D86B036D05B05DF804EB18471846FFF743
:103E200073FE01E71EF0200F7FF47CAFC9E7002886
:103E30003FF419AF70E71A6802F1140151E8001F4E
:103E400021F00101143242E800100028F3D1196872
:103E500001F1140252E8002F22F04002143141E82F
:103E600000200028F3D1202283F84220186319682B
:103E700001F10C0252E8002F22F010020C3141E84F
:103E800000200028F3D1D86B009300F07BFF009B4B
:103E9000B3F82CC002225A63D98DACEB010118464D
:103EA00089B2FFF73BFEBFE6D88DDA8D92B2002AC9
:103EB0003FF4BAAEACEB000C1FFA8CFCBCF1000F67
:103EC0003FF4B2AE01F10C0252E8002F22F49072DE
:103ED0000C3141E8002019680A460028F2D100E0C0
:103EE0001A6802F1140151E8000F20F001000A469F
:103EF00042E800010029F3D1202283F8422019630F
:103F0000186800F10C0252E8002F22F010020C3069
:103F100040E800210029F3D102225A636146184685
:103F2000FFF7FCFD80E612F0040F7FF498AE3CE74B
:103F300018460093FFF7F4FD009B19689FE6624561
:103F40007FF472AEC169B1F5807F7FF46DAE02215E
:103F5000596318461146FFF7E1FD65E61869002828
:103F60007FF4F0AE1288C2F308024A601A6A023285
:103F70001A62EBE60D3B000830B5044685B00D0C27
:103F8000012DD4F800E002D10CE0581C17D1DEF866
:103F90001800C0F3400C9445F7D0002005B030BDA8
:103FA000581C0CD1DEF8140021EA000C1FFA8CFC1E
:103FB000BCFA8CFC4FEA5C1C6245F1D0EDE7CDE920
:103FC00002230191FEF724FF089BC01A039B98422D
:103FD000DDE901121AD9012D20681CD08069C04387
:103FE000C0F3400080F00100C0B29042C8D100226E
:103FF0002023226384F83D3084F83E20236C84F82B
:104000003C2043F0200323640120C7E7002BB7D1F5
:10401000012D2068E2D1406921EA000080B2B0FAA7
:1040200080F04009E1E700BF10B5D0F800E084B0AF
:104030000446DEF8140021EA000C1FFA8CF090B15F
:10404000DEF81400400510D4501C04D028E0DEF83F
:1040500014305B0509D4DEF8143021EA03039BB267
:10406000002BF4D1184604B010BDDEF8003043F444
:104070000073CEF800302168002220236FF48060A6
:104080004861226384F83D3084F83E20236C43F07D
:10409000040323640023012084F83C3004B010BDE5
:1040A000CDE902230191FEF7B3FE039B029AD4F8F7
:1040B00000E00199C01A904201D8002AB9D1DEF877
:1040C000140021EA000080B20028B2D00023202290
:1040D000236384F83D2084F83E30236C134323642B
:1040E000D8E700BF70B5036816465A69540624D451
:1040F00004460D460DE0FEF78BFE801BA8422368A8
:1041000000D81DB95A6912F0400218D05A695206F7
:1041100013D45A69D106EED500226FF01000202189
:104120005861226384F83D1084F83E20236C236498
:10413000002384F83C30012070BD002070BD202396
:10414000226384F83D3084F83E20236C43F0200342
:104150002364EDE710B5036882B004465869000691
:1041600039D45869400522D4481C1AD0CDE9001230
:10417000FEF74EFE019A00992368801A884201D802
:104180000029EBD1586910F08000E7D1202320638B
:1041900084F83D3084F83E00236C43F02003236410
:1041A00013E05A69120616D45A695105F9D500224E
:1041B0006FF4806020215861226384F83D1084F8F8
:1041C0003E20236C43F0040323640023012084F881
:1041D0003C3002B010BD002002B010BD10B5036825
:1041E00082B004465869400739D45869400522D442
:1041F000481C1AD0CDE90012FEF70AFE019A009978
:104200002368801A884201D80029EBD1586910F040
:104210000400E7D12023206384F83D3084F83E0079
:10422000236C43F02003236413E05A69520716D429
:104230005A695105F9D500226FF480602021586138
:10424000226384F83D1084F83E20236C43F004037D
:1042500023640023012084F83C3002B010BD00200C
:1042600002B010BDF0B5164602681F46136843F44D
:10427000807385B0136002680A9D5369DB070446AA
:1042800004D46B1C17D15369D807FCD501F0FE018B
:1042900011610B9B2F492A462046FFF7C5FEA0B1AE
:1042A0000123184605B0F0BD15B95369DB0722D5C7
:1042B0005369D807EAD40191FEF7AAFD0B9B226847
:1042C0000199C01A8542F0D3EEE72368039059693B
:1042D00003919B6903930B9A039B29462046FFF7A2
:1042E00039FF034660BB012F20681BD1F2B2026187
:1042F000184605B0F0BD00212023216384F83D302D
:1043000084F83E10236C84F83C1043F020032364AF
:104310001368DD0502D54FF40073236403231846A8
:1043200005B0F0BD2946350A05610B9A0193204678
:10433000FFF710FF019B18B92168F2B20A61B0E7DC
:10434000236C042BACD12268136843F40073136010
:10435000A6E700BF020001002DE9F0439046026885
:104360009946136843F4806385B0136002680C9D1E
:1043700013680D9E43F4807313600268536904460A
:10438000D8070F4604D4691C17D15369D907FCD547
:1043900007F0FE031361424933462A462046FFF7E1
:1043A00043FE88B1012005B0BDE8F08315B953691B
:1043B000DB0742D55369D807EAD4FEF729FD801BF5
:1043C00085422268F3D3F1E723680390596903918A
:1043D0009B690393324629462046039BFFF7BAFEAA
:1043E000002841D1B9F1010F236846D15FFA88F264
:1043F0001A61324629462046FFF7ACFE002833D129
:1044000002462068016841F4807101602B460096E5
:104410004FF001112046FFF7AFFD226800283BD185
:1044200047F00103DBB21E491361204633462A469A
:1044300005B0BDE8F043FFF7F7BD0021202321635D
:1044400084F83D3084F83E10236C84F83C1043F02F
:10445000200323641368DD0502D54FF40073236441
:10446000032005B0BDE8F083236C042B9AD12268A9
:10447000136843F40073136094E74FEA18221A613B
:10448000294632462046FFF765FE0028ECD1226817
:104490005FFA88F31361ACE71368DB05E0D5DCE76E
:1044A00002000100704700BF002800F0B78038B557
:1044B00090F83D30044603F0FF02002B00F09A8094
:1044C0002268242384F83D30136823F0010313602D
:1044D0002268136843F4004313602268136823F4CE
:1044E00000431360FEF7D0FF4D4B62689A423DD8FF
:1044F0004C4B98423DD9D4F800C04B49DCF804201D
:10450000A1FB003122F03F0242EA9142CCF80420A4
:104510008B0C2168DFF808C165680A6A654522F0DE
:104520003F0208D9DFF808C14FF4967E0EFB03F373
:10453000ACFB03C39B09013313430B62D4E9002195
:10454000DFF8DCC0D369614523F44F4300F1FF304D
:1045500023F0FF030FD84900B0FBF1F040F6FC71E7
:104560000130084256D0C0F30B0014E02F4B9842A4
:10457000C1D8012038BDA568002D40D001EB8101D4
:1045800001EB8101B0FBF1F00130C0F30B0000281A
:1045900042D040F440400343D3612168206A0A6856
:1045A000E36922F0C002034313430B602168E06813
:1045B0008A68236922F40342034322F0FF02134373
:1045C0008B602168A069CA68636922F0FF02034317
:1045D0001343CB6021680A6800234FF0200C42F09F
:1045E00001020A60236484F83DC0236384F83E30EE
:1045F000184638BD80F83C20FFF754FF60E701EB18
:104600004101B0FBF1F00130C0F30B0020B140F4E8
:104610000040C0E70420BEE70120BCE7012070474E
:10462000A08601007F841E0083DE1B43FF083D003F
:10463000D34D62102DE9F043044683B09946BDF88E
:104640002C600F469046FEF7E3FB94F83D30202B9C
:1046500003D0022003B0BDE8F08305460090424934
:10466000192301222046FFF787FC0028F1D194F896
:104670003C30012BEDD00123206884F83C300368E6
:10468000D9076AD5D0F800C02CF4006CC0F800C07F
:104690000A9860620C9800902120019584F83D00F2
:1046A000402084F83E00002020646685608D2085CF
:1046B0002E48E0624B46424639462046FFF7D2FD7F
:1046C000002846D1238D002B28D00C992A4620465D
:1046D000FFF740FD002834D1626A236812781A611E
:1046E000238D628D606A2168013B013A9BB200F123
:1046F000010C2385C4F824C062854A695207E2D5BB
:1047000063B143780B61238D628D616A013B9BB27B
:104710000131013A616223856285D4E70C992A460A
:104720002046FFF75BFD60B922681368202143F43F
:104730000073136084F83D1084F83C0084F83E0058
:1047400088E7236C042B04D12268136843F40073B8
:104750001360012003B0BDE8F083036843F0010358
:10476000036020688EE700BF020010000000FFFF1A
:104770002DE9F047044686B09A46BDF83C70109E7D
:1047800088469146FEF744FB94F83D30202B04D038
:104790000227384606B0BDE8F087054600909449E8
:1047A000192301222046FFF7E7FB0028F0D194F8F7
:1047B0003C30012BECD00123206884F83C300368A6
:1047C000DB0733D5D0F800C02CF4006CC0F800C073
:1047D0000E9860622220CDE9006584F83D004020FB
:1047E00084F83E00002020646785608D2085814824
:1047F000E06253464A4641462046FFF7ADFD074674
:1048000078B9238D2268BBB1012B00F0E080022B28
:1048100000F0CB8005905169059192690592059A47
:1048200018E00127384606B0BDE8F087036843F07A
:10483000010303602068C5E70293536902939369FB
:104840000293029B136843F400731360238D002BC3
:1048500000F0A280032B49D8012B00F09080022B9E
:104860006549009533464FF0000220466CD0FFF7B3
:1048700083FB0028D5D121680B6823F480630B608B
:104880002168636A09691970238D616A013B238578
:10489000638D0131013B6162024600955649638593
:1048A00020463346FFF768FB0028BAD12268136818
:1048B00043F4007313602268636A12691A70616AB4
:1048C000628D4B1C6362238D013A6285013B226835
:1048D000238513694B70238D616A628D013B013121
:1048E0009BB2013A616223856285B0E72A46314670
:1048F0002046FFF7F7FB002893D12268636A12690C
:104900001A70618D238D626A0139013B6185013224
:10491000216862629BB223854869400797D5032BC3
:1049200005D10B6823F480630B602168626A0B6910
:104930001370626A238D01326262628D013B9BB209
:10494000013A2385628582E7FFF716FB00287FF492
:1049500068AF2268136843F40073136023681A6910
:10496000636A1A70638D626A013B6385238D013B24
:104970002385511C236861621B695370D9E72A465D
:1049800031462046FFF7AEFB00287FF44AAF23688C
:104990001A69636A1A70CCE70023202284F83D204C
:1049A00084F83C3084F83E30F3E6136823F48063E7
:1049B00013602268136843F4006313602368049053
:1049C0005A6904929B690493049B238D3FE7136803
:1049D00023F480631360236803905A6903929A69F1
:1049E0000392039A1A6842F400721A60238D2EE72C
:1049F000020010000000FFFF04000100704700BF2C
:104A000090F83D30012B2CD10368174A02219342C4
:104A100080F83D101AD0B3F1804F17D0A2F57C4238
:104A2000934213D002F5806293420FD002F5806268
:104A300093420BD002F57842934207D002F57052B0
:104A4000934203D0A2F59432934204D19A6802F0C3
:104A50000702062A03D01A6842F001021A600020F9
:104A600070470120704700BF0000014090F83D30C2
:104A7000012B30D102681949022380F83D30D368F8
:104A800043F00103D36003688B4219D0B3F1804F28
:104A900016D0134A934213D002F5806293420FD08E
:104AA00002F5806293420BD002F57842934207D020
:104AB00002F57052934203D0A2F59432934204D18E
:104AC0009A6802F00702062A03D01A6842F001022F
:104AD0001A60002070470120704700BF00000140AD
:104AE00000040040704700BF704700BF704700BF20
:104AF000704700BF70B50368DE681C69A1070546F2
:104B000001D5B20754D4610701D572073CD42307FD
:104B100001D5300725D4E20601D5F30610D4E0070D
:104B200001D5F1075BD4220601D533065FD46006B8
:104B300001D5710663D4A20601D5B30646D470BD73
:104B40002B686FF010021A612B6808222A77DB6944
:104B500013F4407F284666D0FFF7C6FF00232B776B
:104B6000DDE72B686FF008021A612B6804222A77B0
:104B7000DB699907284653D1FFF7B4FF2846FFF7B2
:104B8000B5FF00232B77C6E72B686FF004021A618C
:104B90002B6802222A779B6913F4407F28463CD178
:104BA000FFF7A0FF2846FFF7A1FF00232B77AEE712
:104BB0006FF002021A610123037703689B699B0768
:104BC00025D0FFF791FF00232B779CE72B686FF030
:104BD00020021A612846BDE8704000F0CFB82B686B
:104BE0006FF001021A612846FCF744FB9BE72B6833
:104BF0006FF080021A61284600F0C2F897E72B6830
:104C00006FF040021A612846FFF772FF93E7FFF743
:104C100069FF2846FFF76AFFD5E7FFF765FFC4E79E
:104C2000FFF762FFADE7FFF75DFF2846FFF75EFF86
:104C300094E700BF10B5DFF8D4C04A690368D1F823
:104C400008E0604532D0B0F1804F2FD0DFF8C0C00F
:104C500060454BD00CF5806C604547D0DFF8B4C0A0
:104C6000604543D0DFF8B0C060453FD0DFF8ACC04E
:104C700060453FD00CF5806C60453BD00CF5806CF6
:104C8000604537D0ACF5983C604533D00CF5806C6E
:104C900060452FD00CF5806C60452BD0C0F82CE01F
:104CA0000968816223F080031A4317E04C68D1F849
:104CB0000CC0C0F82CE023F07003234323F44073AE
:104CC00043EA0C03DFF844C00C68846223F08003DD
:104CD000604542EA030201D10B69036303680121C5
:104CE00043F0040303604161026010BD4C6823F08F
:104CF00070032343D1F80CC0C0F82CE023F44073B8
:104D000043EA0C03DFF810C0DEE700BF00000140FB
:104D100000040040000C004000040140004001403D
:104D200050B310B590F83D30044603F0FF02F3B1E4
:104D30002146022384F83D3051F8040BFFF77AFF37
:104D4000012384F8463084F83E3084F83F3084F8FC
:104D5000403084F8413084F8423084F8433084F89D
:104D6000443084F8453084F83D30002010BD80F890
:104D70003C20FFF743FEDBE701207047704700BF90
:104D8000704700BF70B50446836D1E46FEF740F8BD
:104D900094F83530022B06D080236365002384F815
:104DA0003430012070BD2268136823F016031360AD
:104DB0002268536923F080035361236C054653B383
:104DC0002268136823F0080313602268136823F035
:104DD0000103136004E0FEF71BF8401B052810D800
:104DE00023681B6813F00103F5D1E16D3F228A406F
:104DF000184601210023B26084F8351084F834305D
:104E000070BD032320226265184684F835300023E4
:104E100084F8343070BDA36C002BD1D1D5E700BF2E
:104E200090F83530022B03D0802343650120704772
:104E30000268052380F83530136823F00103002051
:104E40001360704782B00C4B002100915A6C42F401
:104E500080425A645A6C02F480420092009A019196
:104E60001A6C42F080521A641B6C03F08053019359
:104E7000019B02B0704700BF00380240FEE700BF50
:104E8000FEE700BFFEE700BFFEE700BFFEE700BF92
:104E9000704700BF704700BF704700BF704700BF3A
:104EA0000148FFF727BE00BF545E01200148FEF70E
:104EB00099BE00BF305F0120034AD2F8883043F426
:104EC0007003C2F88830704700ED00E0DFF834D09E
:104ED000FFF7F2FF0C480D490D4A002302E0D458B9
:104EE000C4500433C4188C42F9D30A4A0A4C002334
:104EF00001E013600432A242FBD300F097FCFBF701
:104F00003FFE7047000002200000002060000020EB
:104F10003074000860000020B0DF0120FEE70000D0
:104F200000F0A8B808B52DED028BF0EE408A00F035
:104F300043F9B0EE408AB0EE680A00F087F868B135
:104F4000DFED127AF4EEE78AF1EE10FA0BDCDFED1A
:104F5000107AF4EEE78AF1EE10FA0FD4B0EE480AB8
:104F6000BDEC028B08BD9FED0B8A00F059FCB0EE42
:104F7000480ABDEC028B2223036008BD00F050FC00
:104F800022239FED058A0360E8E700BF1772B14254
:104F9000B5F1CFC20000807F0000000008B52DED04
:104FA000028BB0EE408A00F0FBF9B4EE488AF1EED5
:104FB00010FA0FD6B5EEC08AF1EE10FA0ADCB5EEA3
:104FC000408AF1EE10FA08D100F02AFC22239FED6E
:104FD000090A0360BDEC028B08BD00F021FCBDECAA
:104FE000028B034621221A600348BDE8084000F006
:104FF00037B800BF000080FF246A000800B52DED1F
:10500000028BB0EE408A83B000F030F8B4EE488AEC
:10501000F1EE10FA06D6DFED0C7AB4EEE78AF1EE87
:1050200010FA03D403B0BDEC028B00BDCDED017AC4
:1050300000F0F6FBDDED017A87EEA70A212303607D
:1050400003B0BDEC028B00BD0000000010EE103A72
:1050500023F00040B0F1FF4F2CBF0020012070472B
:105060009FED010A704700BF0000C07FB1EEC00A8B
:10507000704700BF10EE903A23F00041B1F1FF4FAE
:10508000F0EE407A33D810EE10CA2CF00040B0F1A8
:10509000FF4F2CD8B3F17E5F3DD09A1702F0020289
:1050A00042EADC7230B371B3B1F1FF4F3ED0B0F1E0
:1050B000FF4F35D000B5401AB0F1F45F83B04FEA2E
:1050C000E0512ADA002B3EDA3C313CDA9FED310A1E
:1050D000012A41D0022A46D03AB19FED2F7ADFED66
:1050E0002F7A30EE070A30EE670A03B000BD30EECB
:1050F000A70A7047022A0BD09FED297A032A08BF1E
:10510000B0EE470A70478C450DDB9FED260A7047CD
:105110009FED220A704700F03DBA9FED220AD7E7C3
:10512000BCF1000FF1DA9FED200A7047B0F1FF4F9C
:1051300002F1FF3220D0022A26D81C4B03EB820357
:1051400093ED000A704787EEA00A019200F0FEFA84
:1051500000F020FA019ABBE710EE103A03F1004389
:1051600000EE103AC1E79FED0C7ADFED0C7A30EEDD
:10517000070A37EEC00AB8E7022A08D80C4B03EB3F
:10518000820393ED000A70479FED020A70479FED7E
:10519000090A7047000000002EBDBB33DB0F4940F9
:1051A000DB0F49C0DB0FC93FDB0FC9BF9C73000891
:1051B000A8730008DB0F493F10EE103A23F00042BD
:1051C000B2F1FF4F56D84FEAD37100F09580624894
:1051D000834200F38780002BC0F287805F4B9A42A6
:1051E0004BD95F4B9A4200F29A805E4B5E4A03EBCA
:1051F0008103D3ED004A02EB810281F0010370EEDE
:10520000644AD2ED007A5B1A34EEE70ADFED576AA2
:105210009FED575ADFED575A9FED576A20EE007AFF
:10522000A7EE265ADFED556AE5EE075AE5EE876AE6
:10523000A6EE876AF0EE406AE6EE476A20EE266A3E
:10524000002B42D0B0EE007A37EE667AB7EE000A55
:10525000C6EE076A13F17D0F77EEE67A77EEE47A11
:1052600030EE670A4FDB10EE102A02EBC35300EE5C
:10527000103A704730EE000A7047B2F1505F0AD220
:10528000DFED3F7A70EE277AB7EE007AF4EEC77A58
:10529000F1EE10FA5DDC60EE007A9FED347ADFED1E
:1052A000345A9FED346ADFED356AE7EE875A9FED99
:1052B000327AA7EEA56AE7EE866AA7EEA67AF0EE46
:1052C000406AE7EEC76A20EE266AF0EE007A76EED4
:1052D000E76AB7EE007AC6EE267A77EEC07A37EE46
:1052E000670A7047002000F05BBA264B9A427FF6AF
:1052F00075AF002000F04EBADFED237A002918BF09
:10530000B0EE670A704710EE102A643302EBC35305
:10531000DFED1E7A00EE103A20EE270A70471C4B94
:105320009FED1C7ADFED1C6A03EB8103D3ED007A5D
:10533000E0EE077A9FED197AFDEEE77AF0EE404A4B
:1053400017EE903AF8EEE77AE7EEE64A67EE877AEC
:105350005AE730EE070A70471772B1421872B13E31
:105360009115853FBC730008B47300084CBB313302
:105370000EEADDB555B38A38ABAA2A3E610B36BBBF
:10538000CAF24971B5F1CF42000000000000800D63
:10539000C47300083BAAB83F8071313FD1F717377B
:1053A00010EE102A32F000432FD0002A134633DBD0
:1053B000B2F1FF4F40DAB2F5000F34DB4FF0000CD2
:1053C0006448C3F31601081800F4000282F07E520C
:1053D0000A43DB1500EE102A7F3B5F4A634401F16C
:1053E0000F0CF7EE007A0CEA020230EE670A03EBCC
:1053F000D05322BBB5EE400AF1EE10FA62D1002B79
:1054000040F090809FED550A70479FED557ADFED93
:10541000537A87EE270A704770EE407A9FED4F7AF5
:1054200087EE870A7047DFED4F7A60EE277A6FF0DC
:10543000180C17EE903AC3E730EE000A7047F0EE12
:10544000007A70EE277A07EE103A80EE274A464837
:10545000C1F55712081802F522720243002A9FED87
:10546000433ADFED434ADFED435ADFED433A9FED28
:10547000435ADFED437ADFED436A24EE046AF8EE27
:10548000C72A26EE067AE7EE034AA7EE235AE4EE91
:10549000875AE5EE076AE5EE877A67EE867AE6EEEA
:1054A000877A2ADDB6EE007A20EE077A27EE007AB8
:1054B00077EE877A67EE847A3BBB37EE677A30EE19
:1054C000470A7047DFED307AB6EE007AA0EE677AD1
:1054D00060EE007A27EE277A002BF0D007EE903AA4
:1054E0009FED2A6ADFED2A6AF8EEE77AA7EEC67A20
:1054F00037EE400A97EEA60A704770EE677A67EEBD
:10550000847AE3B930EE670A70479FED206ADFEDD9
:10551000206AE2EE867A37EE677A37EE400A92EE3C
:10552000A60A704707EE903A9FED180A9FED187A89
:10553000F8EEE77A27EE800AA7EE870A7047DFEDDC
:10554000136A9FED137AE2EEE67A37EEC00A92EE26
:10555000870A704720FB4A00F0FF7F000000000030
:10556000000000CC0000004C305CCFFF9788173E55
:1055700025333A3E2549923E4FD01C3E298E633E4C
:10558000ABAA2A3FCDCCCC3EABAAAA3ED1F7173767
:105590008071313F10EE102A22F00043B3F1A14F89
:1055A000F0EE407A07D3B3F1FF4F56D8002A7CDDE6
:1055B0009FED530A704700B552498B4283B05BD8C8
:1055C000B3F1445F4CD34FF0FF3327EEA76A9FED52
:1055D0004E5A9FED4E7ADFED4E5ADFED4E4A66EEA3
:1055E000066A591CA6EE857AE6EEA54A9FED4A5A50
:1055F000DFED4A5AA7EE265AE4EEA65A9FED487A06
:10560000DFED484AA5EE267AE5EEA64A9FED465A1A
:10561000DFED465AA7EE265A9FED457AA4EEA67A0C
:10562000E5EE265A27EE267AA5EE867A27EE277A29
:1056300042D04048404900EB8300D0ED006A37EE8D
:10564000667A01EB8303D3ED006A37EE677A002AAE
:1056500036EEC70A2CDB03B000BD30EE000A7047FF
:105660009FED367A30EE077AF7EE006AB4EEE67A0E
:10567000F1EE10FAA7DDEEE7CDE9003200F066F8B2
:105680002F49009B019A8B421AD8A1F5D0018B4279
:105690002BD8F0EE007ABFEE007AA0EE277A002336
:1056A00030EE270AC7EE007A8FE79FED260A704793
:1056B000B1EE400A03B000BD37EEC70A03B000BD2B
:1056C00021498B420BD8F7EE087AB7EE007AA0EEAC
:1056D000277A022330EE670AC0EE077A75E7BFEE3D
:1056E000007AC7EE007A03236FE7F7EE007A30EE18
:1056F000677A30EE270A0123C7EE007A65E700BF1C
:10570000DB0FC93FFFFFDF3ED769853C59DA4B3DD0
:1057100021A215BD6BF16EBD356B883D95879DBD92
:105720006E2EBA3D388EE3BD2549123EABAAAA3E85
:10573000CDCC4CBECC730008DC730008CAF24971B2
:10574000FFFF973FDB0FC9BFFFFF1B4010EE103A72
:1057500023F0004300EE103A704700BF10B582B04E
:105760008DED010A044600F05BF89DED010A04602E
:1057700002B010BD30B1F1EE407A27EE800A22204F
:10578000FFF7ECBFF0EE407A27EE800A2220FFF709
:10579000E5BF00BF9FED010AFFF7ECBF000000105E
:1057A0009FED010AFFF7E6BF000000700CB430B5B2
:1057B000154B0C1E1D689DB008DA8B232B604FF033
:1057C000FF301DB0BDE8304002B070474FF000031D
:1057D0001B9318BF0123E31A049307930B4B02900A
:1057E00006900593209A21AB02A92846019300F068
:1057F000A7F9431CBCBF8B232B60002CE1D0029B7C
:1058000000221A70DDE700BF100000200802FFFF31
:1058100002440346934200D1704703F8011BF9E7A5
:10582000014B1868704700BF1000002070B50D4B89
:105830000D4C00261D1BB6EBA50F09D100F016FE7E
:105840000A4C0B4B00261D1BB6EBA50F05D170BDF6
:1058500054F8043B98470136EDE754F8043B984769
:105860000136F1E72874000828740008287400083D
:105870002C740008704770470A44914200F1FF33CE
:1058800000D1704710B511F8014B03F8014F914258
:10589000F9D110BD37B5002944D051F8043C01902E
:1058A000002BA1F10404B8BFE41800F0DDF81E4A93
:1058B0000198136833B96360146003B0BDE83040E9
:1058C00000F0D8B8A34208D9256861198B4201BFFE
:1058D00019685B6849192160EDE71A465B680BB1EE
:1058E000A342FAD911685518A5420BD12468214466
:1058F0005418A3421160E0D11C685B6853600C44EB
:105900001460DAE702D90C230360D6E72568611931
:105910008B4204BF19685B68636004BF491921604A
:105920005460CAE703B030BDA8DF012070B50F4C4A
:105930000E462168054611B900F0B4FB20603146DF
:10594000284600F0AFFB431C03D14FF0FF34204644
:1059500070BDC41C24F00304A042F8D0211A2846CC
:1059600000F0A0FB0130F2D1EFE700BFA4DF01207F
:105970002DE9F843CD1C25F0030508350C2D38BF63
:105980000C25002D064601DBA94204D90C23336007
:105990000020BDE8F883334F00F066F83B681C46F2
:1059A0003CBB29463046FFF7C1FF431C044656D195
:1059B0003C68A046B8F1000F40D1002C49D02368C4
:1059C0004146304604EB030900F06CFB814540D1B1
:1059D00021686D1A29463046FFF7A8FF013038D0FC
:1059E00023682B4423603B685A685ABBC7F8008081
:1059F0000EE02268521B1ED40B2A16D96119A3424D
:105A0000256018BF5960636808BF396062514B60F8
:105A1000304600F02FF804F10B00231D20F00700A2
:105A2000C21A1CBF1B1AA350B3E76268A3420CBF83
:105A30003A605A60ECE723466468B1E74446D8F818
:105A40000480B7E71A465B68A342FBD1002353608A
:105A5000DEE70C233360304600F00CF898E7056071
:105A6000D6E700BFA8DF01200148FFF703BF00BF52
:105A7000A0DF01200148FFF7FEBE00BFA0DF01202C
:105A80002DE9F0478E681F46BE4282460C4690467E
:105A9000334653D8B1F90C0010F4906F2BD06569E0
:105AA0002368096905EB4505A3EB010905EBD575ED
:105AB0007B1C6D104B44AB422A4684BF1D462A46D0
:105AC000430527D511465046FFF752FF064658B307
:105AD00021694A46FFF7D0FEA38923F4906343F07F
